{
  "_format": "hh-sol-artifact-1",
  "contractName": "RealEstate",
  "sourceName": "contracts/RealEstate.sol",
  "abi": [
    {
      "anonymous": false,
      "inputs": [
        {
          "indexed": true,
          "internalType": "uint256",
          "name": "id",
          "type": "uint256"
        },
        {
          "indexed": true,
          "internalType": "address",
          "name": "owner",
          "type": "address"
        },
        {
          "indexed": false,
          "internalType": "uint256",
          "name": "price",
          "type": "uint256"
        }
      ],
      "name": "PropertyListed",
      "type": "event"
    },
    {
      "anonymous": false,
      "inputs": [
        {
          "indexed": true,
          "internalType": "uint256",
          "name": "id",
          "type": "uint256"
        },
        {
          "indexed": true,
          "internalType": "address",
          "name": "oldOwner",
          "type": "address"
        },
        {
          "indexed": true,
          "internalType": "address",
          "name": "newOwner",
          "type": "address"
        },
        {
          "indexed": false,
          "internalType": "uint256",
          "name": "price",
          "type": "uint256"
        }
      ],
      "name": "PropertyResold",
      "type": "event"
    },
    {
      "anonymous": false,
      "inputs": [
        {
          "indexed": true,
          "internalType": "uint256",
          "name": "id",
          "type": "uint256"
        },
        {
          "indexed": true,
          "internalType": "address",
          "name": "oldOwner",
          "type": "address"
        },
        {
          "indexed": true,
          "internalType": "address",
          "name": "newOwner",
          "type": "address"
        },
        {
          "indexed": false,
          "internalType": "uint256",
          "name": "price",
          "type": "uint256"
        }
      ],
      "name": "PropertySold",
      "type": "event"
    },
    {
      "anonymous": false,
      "inputs": [
        {
          "indexed": true,
          "internalType": "uint256",
          "name": "productId",
          "type": "uint256"
        },
        {
          "indexed": true,
          "internalType": "address",
          "name": "reviewer",
          "type": "address"
        },
        {
          "indexed": false,
          "internalType": "uint256",
          "name": "rating",
          "type": "uint256"
        },
        {
          "indexed": false,
          "internalType": "string",
          "name": "comment",
          "type": "string"
        }
      ],
      "name": "ReviewAdded",
      "type": "event"
    },
    {
      "anonymous": false,
      "inputs": [
        {
          "indexed": true,
          "internalType": "uint256",
          "name": "productId",
          "type": "uint256"
        },
        {
          "indexed": true,
          "internalType": "uint256",
          "name": "reviewIndex",
          "type": "uint256"
        },
        {
          "indexed": true,
          "internalType": "address",
          "name": "Liker",
          "type": "address"
        },
        {
          "indexed": false,
          "internalType": "uint256",
          "name": "Likes",
          "type": "uint256"
        }
      ],
      "name": "Reviewliked",
      "type": "event"
    },
    {
      "inputs": [
        {
          "internalType": "uint256",
          "name": "productId",
          "type": "uint256"
        },
        {
          "internalType": "uint256",
          "name": "rating",
          "type": "uint256"
        },
        {
          "internalType": "string",
          "name": "comment",
          "type": "string"
        },
        {
          "internalType": "address",
          "name": "user",
          "type": "address"
        }
      ],
      "name": "addReview",
      "outputs": [],
      "stateMutability": "nonpayable",
      "type": "function"
    },
    {
      "inputs": [
        {
          "internalType": "uint256",
          "name": "id",
          "type": "uint256"
        },
        {
          "internalType": "address",
          "name": "buyer",
          "type": "address"
        }
      ],
      "name": "buyProperty",
      "outputs": [],
      "stateMutability": "payable",
      "type": "function"
    },
    {
      "inputs": [],
      "name": "getAllProperties",
      "outputs": [
        {
          "components": [
            {
              "internalType": "uint256",
              "name": "productID",
              "type": "uint256"
            },
            {
              "internalType": "address",
              "name": "owner",
              "type": "address"
            },
            {
              "internalType": "uint256",
              "name": "price",
              "type": "uint256"
            },
            {
              "internalType": "string",
              "name": "propetyTitle",
              "type": "string"
            },
            {
              "internalType": "string",
              "name": "category",
              "type": "string"
            },
            {
              "internalType": "string",
              "name": "images",
              "type": "string"
            },
            {
              "internalType": "string",
              "name": "propertyAddress",
              "type": "string"
            },
            {
              "internalType": "string",
              "name": "description",
              "type": "string"
            },
            {
              "internalType": "address[]",
              "name": "reviewers",
              "type": "address[]"
            },
            {
              "internalType": "string[]",
              "name": "reviews",
              "type": "string[]"
            }
          ],
          "internalType": "struct RealEstate.Property[]",
          "name": "",
          "type": "tuple[]"
        }
      ],
      "stateMutability": "view",
      "type": "function"
    },
    {
      "inputs": [],
      "name": "getHighestRatedProduct",
      "outputs": [
        {
          "internalType": "uint256",
          "name": "",
          "type": "uint256"
        }
      ],
      "stateMutability": "view",
      "type": "function"
    },
    {
      "inputs": [
        {
          "internalType": "uint256",
          "name": "productId",
          "type": "uint256"
        }
      ],
      "name": "getProductReviews",
      "outputs": [
        {
          "components": [
            {
              "internalType": "address",
              "name": "reviewer",
              "type": "address"
            },
            {
              "internalType": "uint256",
              "name": "productId",
              "type": "uint256"
            },
            {
              "internalType": "uint256",
              "name": "rating",
              "type": "uint256"
            },
            {
              "internalType": "string",
              "name": "comment",
              "type": "string"
            },
            {
              "internalType": "uint256",
              "name": "likes",
              "type": "uint256"
            }
          ],
          "internalType": "struct RealEstate.Review[]",
          "name": "",
          "type": "tuple[]"
        }
      ],
      "stateMutability": "view",
      "type": "function"
    },
    {
      "inputs": [
        {
          "internalType": "uint256",
          "name": "id",
          "type": "uint256"
        }
      ],
      "name": "getProperty",
      "outputs": [
        {
          "internalType": "uint256",
          "name": "",
          "type": "uint256"
        },
        {
          "internalType": "address",
          "name": "",
          "type": "address"
        },
        {
          "internalType": "uint256",
          "name": "",
          "type": "uint256"
        },
        {
          "internalType": "string",
          "name": "",
          "type": "string"
        },
        {
          "internalType": "string",
          "name": "",
          "type": "string"
        },
        {
          "internalType": "string",
          "name": "",
          "type": "string"
        },
        {
          "internalType": "string",
          "name": "",
          "type": "string"
        },
        {
          "internalType": "string",
          "name": "",
          "type": "string"
        }
      ],
      "stateMutability": "view",
      "type": "function"
    },
    {
      "inputs": [
        {
          "internalType": "address",
          "name": "user",
          "type": "address"
        }
      ],
      "name": "getUserProperties",
      "outputs": [
        {
          "components": [
            {
              "internalType": "uint256",
              "name": "productID",
              "type": "uint256"
            },
            {
              "internalType": "address",
              "name": "owner",
              "type": "address"
            },
            {
              "internalType": "uint256",
              "name": "price",
              "type": "uint256"
            },
            {
              "internalType": "string",
              "name": "propetyTitle",
              "type": "string"
            },
            {
              "internalType": "string",
              "name": "category",
              "type": "string"
            },
            {
              "internalType": "string",
              "name": "images",
              "type": "string"
            },
            {
              "internalType": "string",
              "name": "propertyAddress",
              "type": "string"
            },
            {
              "internalType": "string",
              "name": "description",
              "type": "string"
            },
            {
              "internalType": "address[]",
              "name": "reviewers",
              "type": "address[]"
            },
            {
              "internalType": "string[]",
              "name": "reviews",
              "type": "string[]"
            }
          ],
          "internalType": "struct RealEstate.Property[]",
          "name": "",
          "type": "tuple[]"
        }
      ],
      "stateMutability": "view",
      "type": "function"
    },
    {
      "inputs": [
        {
          "internalType": "address",
          "name": "user",
          "type": "address"
        }
      ],
      "name": "getUserReviews",
      "outputs": [
        {
          "components": [
            {
              "internalType": "address",
              "name": "reviewer",
              "type": "address"
            },
            {
              "internalType": "uint256",
              "name": "productId",
              "type": "uint256"
            },
            {
              "internalType": "uint256",
              "name": "rating",
              "type": "uint256"
            },
            {
              "internalType": "string",
              "name": "comment",
              "type": "string"
            },
            {
              "internalType": "uint256",
              "name": "likes",
              "type": "uint256"
            }
          ],
          "internalType": "struct RealEstate.Review[]",
          "name": "",
          "type": "tuple[]"
        }
      ],
      "stateMutability": "view",
      "type": "function"
    },
    {
      "inputs": [
        {
          "internalType": "uint256",
          "name": "productId",
          "type": "uint256"
        },
        {
          "internalType": "uint256",
          "name": "reviewIndex",
          "type": "uint256"
        },
        {
          "internalType": "address",
          "name": "user",
          "type": "address"
        }
      ],
      "name": "likeReview",
      "outputs": [],
      "stateMutability": "nonpayable",
      "type": "function"
    },
    {
      "inputs": [
        {
          "internalType": "address",
          "name": "owner",
          "type": "address"
        },
        {
          "internalType": "uint256",
          "name": "price",
          "type": "uint256"
        },
        {
          "internalType": "string",
          "name": "_propertyTitle",
          "type": "string"
        },
        {
          "internalType": "string",
          "name": "_category",
          "type": "string"
        },
        {
          "internalType": "string",
          "name": "_images",
          "type": "string"
        },
        {
          "internalType": "string",
          "name": "_propertyAddress",
          "type": "string"
        },
        {
          "internalType": "string",
          "name": "_description",
          "type": "string"
        }
      ],
      "name": "listProperty",
      "outputs": [
        {
          "internalType": "uint256",
          "name": "",
          "type": "uint256"
        }
      ],
      "stateMutability": "nonpayable",
      "type": "function"
    },
    {
      "inputs": [],
      "name": "propertyIndex",
      "outputs": [
        {
          "internalType": "uint256",
          "name": "",
          "type": "uint256"
        }
      ],
      "stateMutability": "view",
      "type": "function"
    },
    {
      "inputs": [],
      "name": "reviewsCounter",
      "outputs": [
        {
          "internalType": "uint256",
          "name": "",
          "type": "uint256"
        }
      ],
      "stateMutability": "view",
      "type": "function"
    },
    {
      "inputs": [
        {
          "internalType": "address",
          "name": "owner",
          "type": "address"
        },
        {
          "internalType": "uint256",
          "name": "price",
          "type": "uint256"
        },
        {
          "internalType": "uint256",
          "name": "productId",
          "type": "uint256"
        }
      ],
      "name": "updatePrice",
      "outputs": [
        {
          "internalType": "string",
          "name": "",
          "type": "string"
        }
      ],
      "stateMutability": "nonpayable",
      "type": "function"
    },
    {
      "inputs": [
        {
          "internalType": "address",
          "name": "owner",
          "type": "address"
        },
        {
          "internalType": "uint256",
          "name": "productId",
          "type": "uint256"
        },
        {
          "internalType": "string",
          "name": "_propertyTitle",
          "type": "string"
        },
        {
          "internalType": "string",
          "name": "_category",
          "type": "string"
        },
        {
          "internalType": "string",
          "name": "_images",
          "type": "string"
        },
        {
          "internalType": "string",
          "name": "_propertyAddress",
          "type": "string"
        },
        {
          "internalType": "string",
          "name": "_description",
          "type": "string"
        }
      ],
      "name": "updateProperty",
      "outputs": [
        {
          "internalType": "uint256",
          "name": "",
          "type": "uint256"
        }
      ],
      "stateMutability": "nonpayable",
      "type": "function"
    }
  ],
  "bytecode": "0x608060405234801561001057600080fd5b506125fe806100206000396000f3fe6080604052600436106100dd5760003560e01c8063844ce5621161007f578063ca6445af11610059578063ca6445af1461023c578063dc035e6d1461025c578063e57d6fb71461027c578063f56720b5146102a957600080fd5b8063844ce562146101fc5780639e92a69414610212578063a3007b1f1461022757600080fd5b80633b3bfa15116100bb5780633b3bfa15146101795780633d51402c146101a757806346a4237b146101bc57806370789308146101dc57600080fd5b8063060a3e61146100e257806318d0e8b21461011857806332665ffb14610145575b600080fd5b3480156100ee57600080fd5b506101026100fd366004611cbc565b6102bf565b60405161010f9190611dc0565b60405180910390f35b34801561012457600080fd5b50610138610133366004611cbc565b610880565b60405161010f9190611efd565b34801561015157600080fd5b50610165610160366004611f92565b610b5c565b60405161010f989796959493929190611fab565b34801561018557600080fd5b506101996101943660046120df565b610e8d565b60405190815260200161010f565b3480156101b357600080fd5b50610102610f4f565b3480156101c857600080fd5b506101386101d7366004611f92565b611465565b3480156101e857600080fd5b506101996101f73660046120df565b61159e565b34801561020857600080fd5b5061019960055481565b6102256102203660046121cb565b6116d8565b005b34801561023357600080fd5b50610199611806565b34801561024857600080fd5b506102256102573660046121f7565b61188d565b34801561026857600080fd5b5061022561027736600461228e565b611b00565b34801561028857600080fd5b5061029c6102973660046122c3565b611b99565b60405161010f91906122f6565b3480156102b557600080fd5b5061019960015481565b600154606090600080805b8381101561032c576001600160a01b0386166000806102ea84600161231f565b81526020810191909152604001600020600101546001600160a01b03160361031a5761031760018461231f565b92505b8061032481612338565b9150506102ca565b5060008267ffffffffffffffff8111156103485761034861203c565b60405190808252806020026020018201604052801561038157816020015b61036e611c44565b8152602001906001900390816103665790505b50905060005b84811015610876576001600160a01b0387166000806103a784600161231f565b81526020810191909152604001600020600101546001600160a01b0316036108645760006103d682600161231f565b600081815260208181526040918290208251610140810184528154815260018201546001600160a01b03169281019290925260028101549282019290925260038201805493945091929091839160608401919061043290612351565b80601f016020809104026020016040519081016040528092919081815260200182805461045e90612351565b80156104ab5780601f10610480576101008083540402835291602001916104ab565b820191906000526020600020905b81548152906001019060200180831161048e57829003601f168201915b505050505081526020016004820180546104c490612351565b80601f01602080910402602001604051908101604052809291908181526020018280546104f090612351565b801561053d5780601f106105125761010080835404028352916020019161053d565b820191906000526020600020905b81548152906001019060200180831161052057829003601f168201915b5050505050815260200160058201805461055690612351565b80601f016020809104026020016040519081016040528092919081815260200182805461058290612351565b80156105cf5780601f106105a4576101008083540402835291602001916105cf565b820191906000526020600020905b8154815290600101906020018083116105b257829003601f168201915b505050505081526020016006820180546105e890612351565b80601f016020809104026020016040519081016040528092919081815260200182805461061490612351565b80156106615780601f1061063657610100808354040283529160200191610661565b820191906000526020600020905b81548152906001019060200180831161064457829003601f168201915b5050505050815260200160078201805461067a90612351565b80601f01602080910402602001604051908101604052809291908181526020018280546106a690612351565b80156106f35780601f106106c8576101008083540402835291602001916106f3565b820191906000526020600020905b8154815290600101906020018083116106d657829003601f168201915b505050505081526020016008820180548060200260200160405190810160405280929190818152602001828054801561075557602002820191906000526020600020905b81546001600160a01b03168152600190910190602001808311610737575b5050505050815260200160098201805480602002602001604051908101604052809291908181526020016000905b8282101561082f5783829060005260206000200180546107a290612351565b80601f01602080910402602001604051908101604052809291908181526020018280546107ce90612351565b801561081b5780601f106107f05761010080835404028352916020019161081b565b820191906000526020600020905b8154815290600101906020018083116107fe57829003601f168201915b505050505081526020019060010190610783565b50505050815250508486815181106108495761084961238b565b602090810291909101015261085f60018661231f565b945050505b8061086e81612338565b915050610387565b5095945050505050565b6001600160a01b0381166000908152600360205260408120546060918167ffffffffffffffff8111156108b5576108b561203c565b60405190808252806020026020018201604052801561092157816020015b61090e6040518060a0016040528060006001600160a01b03168152602001600081526020016000815260200160608152602001600081525090565b8152602001906001900390816108d35790505b50905060005b6001600160a01b038516600090815260036020526040902054811015610b54576001600160a01b03851660009081526003602052604081208054839081106109715761097161238b565b90600052602060002001549050600060026000838152602001908152602001600020805480602002602001604051908101604052809291908181526020016000905b82821015610aac5760008481526020908190206040805160a0810182526005860290920180546001600160a01b03168352600181015493830193909352600283015490820152600382018054919291606084019190610a1190612351565b80601f0160208091040260200160405190810160405280929190818152602001828054610a3d90612351565b8015610a8a5780601f10610a5f57610100808354040283529160200191610a8a565b820191906000526020600020905b815481529060010190602001808311610a6d57829003601f168201915b50505050508152602001600482015481525050815260200190600101906109b3565b50505050905060005b8151811015610b3e57876001600160a01b0316828281518110610ada57610ada61238b565b6020026020010151600001516001600160a01b031603610b2c57818181518110610b0657610b0661238b565b6020026020010151858581518110610b2057610b2061238b565b60200260200101819052505b80610b3681612338565b915050610ab5565b5050508080610b4c90612338565b915050610927565b509392505050565b6000806000606080606080606060008060008b8152602001908152602001600020905080600001548160010160009054906101000a90046001600160a01b031682600201548360030184600401856005018660060187600701848054610bc190612351565b80601f0160208091040260200160405190810160405280929190818152602001828054610bed90612351565b8015610c3a5780601f10610c0f57610100808354040283529160200191610c3a565b820191906000526020600020905b815481529060010190602001808311610c1d57829003601f168201915b50505050509450838054610c4d90612351565b80601f0160208091040260200160405190810160405280929190818152602001828054610c7990612351565b8015610cc65780601f10610c9b57610100808354040283529160200191610cc6565b820191906000526020600020905b815481529060010190602001808311610ca957829003601f168201915b50505050509350828054610cd990612351565b80601f0160208091040260200160405190810160405280929190818152602001828054610d0590612351565b8015610d525780601f10610d2757610100808354040283529160200191610d52565b820191906000526020600020905b815481529060010190602001808311610d3557829003601f168201915b50505050509250818054610d6590612351565b80601f0160208091040260200160405190810160405280929190818152602001828054610d9190612351565b8015610dde5780601f10610db357610100808354040283529160200191610dde565b820191906000526020600020905b815481529060010190602001808311610dc157829003601f168201915b50505050509150808054610df190612351565b80601f0160208091040260200160405190810160405280929190818152602001828054610e1d90612351565b8015610e6a5780601f10610e3f57610100808354040283529160200191610e6a565b820191906000526020600020905b815481529060010190602001808311610e4d57829003601f168201915b505050505090509850985098509850985098509850985050919395975091939597565b600086815260208190526040812060018101546001600160a01b038a8116911614610ef75760405162461bcd60e51b81526020600482015260156024820152742cb7ba9030b932903737ba103a34329037bbb732b960591b60448201526064015b60405180910390fd5b60038101610f0588826123f0565b5060048101610f1487826123f0565b5060078101610f2384826123f0565b5060058101610f3286826123f0565b5060068101610f4185826123f0565b509698975050505050505050565b6001546060906000808267ffffffffffffffff811115610f7157610f7161203c565b604051908082528060200260200182016040528015610faa57816020015b610f97611c44565b815260200190600190039081610f8f5790505b50905060005b83811015610b54576000610fc582600161231f565b600081815260208181526040918290208251610140810184528154815260018201546001600160a01b03169281019290925260028101549282019290925260038201805493945091929091839160608401919061102190612351565b80601f016020809104026020016040519081016040528092919081815260200182805461104d90612351565b801561109a5780601f1061106f5761010080835404028352916020019161109a565b820191906000526020600020905b81548152906001019060200180831161107d57829003601f168201915b505050505081526020016004820180546110b390612351565b80601f01602080910402602001604051908101604052809291908181526020018280546110df90612351565b801561112c5780601f106111015761010080835404028352916020019161112c565b820191906000526020600020905b81548152906001019060200180831161110f57829003601f168201915b5050505050815260200160058201805461114590612351565b80601f016020809104026020016040519081016040528092919081815260200182805461117190612351565b80156111be5780601f10611193576101008083540402835291602001916111be565b820191906000526020600020905b8154815290600101906020018083116111a157829003601f168201915b505050505081526020016006820180546111d790612351565b80601f016020809104026020016040519081016040528092919081815260200182805461120390612351565b80156112505780601f1061122557610100808354040283529160200191611250565b820191906000526020600020905b81548152906001019060200180831161123357829003601f168201915b5050505050815260200160078201805461126990612351565b80601f016020809104026020016040519081016040528092919081815260200182805461129590612351565b80156112e25780601f106112b7576101008083540402835291602001916112e2565b820191906000526020600020905b8154815290600101906020018083116112c557829003601f168201915b505050505081526020016008820180548060200260200160405190810160405280929190818152602001828054801561134457602002820191906000526020600020905b81546001600160a01b03168152600190910190602001808311611326575b5050505050815260200160098201805480602002602001604051908101604052809291908181526020016000905b8282101561141e57838290600052602060002001805461139190612351565b80601f01602080910402602001604051908101604052809291908181526020018280546113bd90612351565b801561140a5780601f106113df5761010080835404028352916020019161140a565b820191906000526020600020905b8154815290600101906020018083116113ed57829003601f168201915b505050505081526020019060010190611372565b50505050815250508486815181106114385761143861238b565b602090810291909101015261144e60018661231f565b94505050808061145d90612338565b915050610fb0565b606060026000838152602001908152602001600020805480602002602001604051908101604052809291908181526020016000905b828210156115935760008481526020908190206040805160a0810182526005860290920180546001600160a01b031683526001810154938301939093526002830154908201526003820180549192916060840191906114f890612351565b80601f016020809104026020016040519081016040528092919081815260200182805461152490612351565b80156115715780601f1061154657610100808354040283529160200191611571565b820191906000526020600020905b81548152906001019060200180831161155457829003601f168201915b505050505081526020016004820154815250508152602001906001019061149a565b505050509050919050565b60008087116115ef5760405162461bcd60e51b815260206004820152601c60248201527f7072696365206d7573742062652067726561746572207468616e2030000000006044820152606401610eee565b600180546000918261160083612338565b9091555060008181526020819052604090208181556001810180546001600160a01b0319166001600160a01b038d16179055600281018a90559091506003810161164a89826123f0565b506004810161165988826123f0565b506007810161166885826123f0565b506005810161167787826123f0565b506006810161168686826123f0565b50896001600160a01b0316827f23fb658c1698b92f5fe511a079c17ecf7965cbc3f1b873328c67e2c3c0820f1f8b6040516116c391815260200190565b60405180910390a35098975050505050505050565b600082815260208190526040902060020154349081101561173b5760405162461bcd60e51b815260206004820152601960248201527f496e73756666696369656e742066756e647320746f20627579000000000000006044820152606401610eee565b600083815260208190526040808220600181015491519092916001600160a01b03169084908381818185875af1925050503d8060008114611798576040519150601f19603f3d011682016040523d82523d6000602084013e61179d565b606091505b5050905080156117ff576001820180546001600160a01b0319166001600160a01b038616908117909155604051848152819087907fddd64180d9701c7ede08673ac8106484ff983a472929330d4fbde4e35d65cb069060200160405180910390a45b5050505050565b60008080805b60055481101561188657600061182382600161231f565b60008181526004602052604090206002015490915015611873576000818152600460205260408120600281015460019091015461186091906124b0565b905084811115611871578094508193505b505b508061187e81612338565b91505061180c565b5092915050565b6001841015801561189f575060058411155b6118eb5760405162461bcd60e51b815260206004820152601e60248201527f526174696e67206d757374206265206265747765656e203120616e64203500006044820152606401610eee565b6000858152602081815260408220600881018054600180820183559185528385200180546001600160a01b0319166001600160a01b0387161790556009820180549182018155845291909220016119438486836124d2565b50600260008781526020019081526020016000206040518060a00160405280846001600160a01b0316815260200188815260200187815260200186868080601f0160208091040260200160405190810160405280939291908181526020018383808284376000920182905250938552505050602091820181905283546001808201865594825290829020835160059092020180546001600160a01b0319166001600160a01b0390921691909117815590820151928101929092556040810151600283015560608101519091906003820190611a1e90826123f0565b50608091909101516004918201556001600160a01b0383166000908152600360209081526040808320805460018181018355918552838520018b90558a84529390915281209091018054879290611a7690849061231f565b90915550506000868152600460205260408120600201805491611a9883612338565b9190505550816001600160a01b0316867f4beb3faed0901f48c8eaa53db80247f723ddeb08676b6badb9ee2f191d1ac2df878787604051611adb93929190612592565b60405180910390a360058054906000611af383612338565b9190505550505050505050565b6000838152600260205260408120805484908110611b2057611b2061238b565b90600052602060002090600502019050806004016000815480929190611b4590612338565b9190505550816001600160a01b031683857f9783e4ca114f6613119212137afd2ab27be42397aad77eb6dd300f1d1e21dfe48460040154604051611b8b91815260200190565b60405180910390a450505050565b60008181526020819052604090206001810154606091906001600160a01b03868116911614611c025760405162461bcd60e51b81526020600482015260156024820152742cb7ba9030b932903737ba103a34329037bbb732b960591b6044820152606401610eee565b6002018390555060408051808201909152601e81527f596f75722050726f70657274792070726963652069732055706461796564000060208201529392505050565b6040518061014001604052806000815260200160006001600160a01b0316815260200160008152602001606081526020016060815260200160608152602001606081526020016060815260200160608152602001606081525090565b80356001600160a01b0381168114611cb757600080fd5b919050565b600060208284031215611cce57600080fd5b611cd782611ca0565b9392505050565b6000815180845260005b81811015611d0457602081850181015186830182015201611ce8565b506000602082860101526020601f19601f83011685010191505092915050565b600081518084526020808501945080840160005b83811015611d5d5781516001600160a01b031687529582019590820190600101611d38565b509495945050505050565b600082825180855260208086019550808260051b84010181860160005b84811015611db357601f19868403018952611da1838351611cde565b98840198925090830190600101611d85565b5090979650505050505050565b60006020808301818452808551808352604092508286019150828160051b87010184880160005b83811015611eef57888303603f19018552815180518452878101516001600160a01b03811689860152610140905087820151888601526060808301518282880152611e3483880182611cde565b9250505060808083015186830382880152611e4f8382611cde565b9250505060a08083015186830382880152611e6a8382611cde565b9250505060c08083015186830382880152611e858382611cde565b9250505060e08083015186830382880152611ea08382611cde565b925050506101008083015186830382880152611ebc8382611d24565b925050506101208083015192508582038187015250611edb8183611d68565b968901969450505090860190600101611de7565b509098975050505050505050565b60006020808301818452808551808352604092508286019150828160051b87010184880160005b83811015611eef57888303603f19018552815180516001600160a01b031684528781015188850152868101518785015260608082015160a08287018190529190611f7083880182611cde565b6080948501519790940196909652505094870194925090860190600101611f24565b600060208284031215611fa457600080fd5b5035919050565b8881526001600160a01b03881660208201526040810187905261010060608201819052600090611fdd83820189611cde565b90508281036080840152611ff18188611cde565b905082810360a08401526120058187611cde565b905082810360c08401526120198186611cde565b905082810360e084015261202d8185611cde565b9b9a5050505050505050505050565b634e487b7160e01b600052604160045260246000fd5b600082601f83011261206357600080fd5b813567ffffffffffffffff8082111561207e5761207e61203c565b604051601f8301601f19908116603f011681019082821181831017156120a6576120a661203c565b816040528381528660208588010111156120bf57600080fd5b836020870160208301376000602085830101528094505050505092915050565b600080600080600080600060e0888a0312156120fa57600080fd5b61210388611ca0565b965060208801359550604088013567ffffffffffffffff8082111561212757600080fd5b6121338b838c01612052565b965060608a013591508082111561214957600080fd5b6121558b838c01612052565b955060808a013591508082111561216b57600080fd5b6121778b838c01612052565b945060a08a013591508082111561218d57600080fd5b6121998b838c01612052565b935060c08a01359150808211156121af57600080fd5b506121bc8a828b01612052565b91505092959891949750929550565b600080604083850312156121de57600080fd5b823591506121ee60208401611ca0565b90509250929050565b60008060008060006080868803121561220f57600080fd5b8535945060208601359350604086013567ffffffffffffffff8082111561223557600080fd5b818801915088601f83011261224957600080fd5b81358181111561225857600080fd5b89602082850101111561226a57600080fd5b60208301955080945050505061228260608701611ca0565b90509295509295909350565b6000806000606084860312156122a357600080fd5b83359250602084013591506122ba60408501611ca0565b90509250925092565b6000806000606084860312156122d857600080fd5b6122e184611ca0565b95602085013595506040909401359392505050565b602081526000611cd76020830184611cde565b634e487b7160e01b600052601160045260246000fd5b8082018082111561233257612332612309565b92915050565b60006001820161234a5761234a612309565b5060010190565b600181811c9082168061236557607f821691505b60208210810361238557634e487b7160e01b600052602260045260246000fd5b50919050565b634e487b7160e01b600052603260045260246000fd5b601f8211156123eb57600081815260208120601f850160051c810160208610156123c85750805b601f850160051c820191505b818110156123e7578281556001016123d4565b5050505b505050565b815167ffffffffffffffff81111561240a5761240a61203c565b61241e816124188454612351565b846123a1565b602080601f831160018114612453576000841561243b5750858301515b600019600386901b1c1916600185901b1785556123e7565b600085815260208120601f198616915b8281101561248257888601518255948401946001909101908401612463565b50858210156124a05787850151600019600388901b60f8161c191681555b5050505050600190811b01905550565b6000826124cd57634e487b7160e01b600052601260045260246000fd5b500490565b67ffffffffffffffff8311156124ea576124ea61203c565b6124fe836124f88354612351565b836123a1565b6000601f841160018114612532576000851561251a5750838201355b600019600387901b1c1916600186901b1783556117ff565b600083815260209020601f19861690835b828110156125635786850135825560209485019460019092019101612543565b50868210156125805760001960f88860031b161c19848701351681555b505060018560011b0183555050505050565b83815260406020820152816040820152818360608301376000818301606090810191909152601f909201601f191601019291505056fea2646970667358221220e23567d6f09656f5c0e689bc3af49f9e402b42e32ba5d3f979b4b8c5da49ac4464736f6c63430008110033",
  "linkReferences": {},
  "deployedLinkReferences": {}
}